:100000000C9463000C948B000C948B000C948B006C
:100010000C948B000C948B000C948B000C94B0050A
:100020000C948B000C948B000C948B000C948B0024
:100030000C948B000C948B000C948B000C948B0014
:100040000C9426040C948B000C940F030C94E9027E
:100050000C948B000C948B000C948B000C948B00F4
:100060000C948B000C948B000000000024002700EF
:100070002A000000000023002600290000000008DC
:10008000000201000003040700000000000000005F
:10009000010204081020408001020408102001021F
:1000A0000408102000000000250028002B00040494
:1000B0000404040404040202020202020303030310
:1000C000030302009A0811241FBECFEFD8E0DEBF61
:1000D000CDBF11E0A0E0B1E0E8E5FDE102C0059090
:1000E0000D92A634B107D9F722E0A6E4B1E001C031
:1000F0001D92A431B207E1F710E0C3E6D0E004C0DE
:100100002197FE010E94630DC236D107C9F70E94F4
:10011000C7080C94AA0E0C940000833081F028F4D8
:10012000813099F08230A1F008958730A9F08830AD
:10013000B9F08430D1F4809180008F7D03C080912C
:1001400080008F7780938000089584B58F7702C0F8
:1001500084B58F7D84BD08958091B0008F7703C0F2
:100160008091B0008F7D8093B0000895CF93DF938E
:10017000282F30E0F901E458FF4F8491F901E0574E
:10018000FF4FD491F901E255FF4FC491CC2391F078
:1001900081110E948D00EC2FF0E0EE0FFF1FEE5852
:1001A000FF4FA591B491EC91ED2381E090E021F413
:1001B00080E002C080E090E0DF91CF9108953FB7EA
:1001C000F89480914B0190914C01A0914D01B09118
:1001D0004E0126B5A89B05C02F3F19F00196A11D21
:1001E000B11D3FBFBA2FA92F982F8827820F911DCD
:1001F000A11DB11DBC01CD0142E0660F771F881F14
:10020000991F4A95D1F708958F929F92AF92BF920E
:10021000CF92DF92EF92FF926B017C010E94DF0090
:100220004B015C01C114D104E104F104F1F00E941E
:10023000DF00DC01CB0188199909AA09BB09883EB6
:100240009340A105B10570F321E0C21AD108E1087D
:10025000F10888EE880E83E0981EA11CB11CC11421
:10026000D104E104F10419F7DDCFFF90EF90DF90A6
:10027000CF90BF90AF909F908F9008952FB7F89434
:1002800060914701709148018091490190914A0124
:100290002FBF0895EF92FF920F931F93CF93DF9399
:1002A0007C01EB0100E010E0209761F0688179812A
:1002B000C7010E944A010A80DB81C02D0196080F08
:1002C000191FF2CFC801DF91CF911F910F91FF90BD
:1002D000EF900895DC011296ED91FC911397309701
:1002E00091F08481882379F0861724F40280F381C9
:1002F000E02DF5CF681724F40190F081E02DEFCFC9
:1003000085819681089580E090E008958EE591E0E2
:100310000E94920421E0892B09F420E0822F0895A5
:100320000F931F93CF93DF938C01DC0115961C92E2
:100330001E92149787E090E00E94780DEC011A82DB
:1003400019821882F8019183808387E090E00E94EF
:10035000780DFC01128211821082D80113969C93B1
:100360008E9312979E838D831C821B821682158228
:10037000D483C383DF91CF911F910F910895EF92A2
:10038000FF920F931F93CF93DF9300D01F92CDB7AF
:10039000DEB78C01790121153105C1F487E090E0C9
:1003A0004A835B8369830E94780D7C01FC01118282
:1003B000108213821282698164834A815B81568331
:1003C0004583F8018081918101960AC0F9018481F9
:1003D00068174CF420813181C8010E94BF01F701E8
:1003E000918380830EC0F90186174CF422813381FA
:1003F000C8010E94BF01F7019383828302C0568324
:100400004583C7010F900F900F90DF91CF911F91FF
:100410000F91FF90EF900895CF93DF93EC012A8125
:100420003B810E94BF019B838A83BC01CE010E9455
:100430004A0199838883DF91CF9108950F931F9389
:10044000CF93DF938C01E801A881B9811596ED91D6
:10045000FC911697309719F4109799F415C0E8019C
:100460008A819B81E817F907D1F085819681EC019B
:10047000BC83AB83D8018D939C93CF010E940D0E5A
:10048000E2CFCD010E940D0EF80182819381009789
:1004900051F0DF91CF911F910F910C940D0E109799
:1004A00081F7CF01F6CFDF91CF911F910F91089582
:1004B000EF92FF920F931F93CF93DF9300D000D062
:1004C000CDB7DEB70E943E0100915101109152015B
:1004D0002091530130915401601B710B820B930BDF
:1004E00026E930E040E050E00E94170D609158018D
:1004F0007091590180915A0190915B0100915601D0
:10050000109157016817790719F00115110521F5A8
:100510000115110571F0C80129833A834B835C836F
:100520000E941E02C8010E940D0E5C814B813A811F
:10053000298186E090E029833A834B835C830E9483
:10054000780D8C010E949001109357010093560181
:100550005C814B813A81298110915501E0905601CF
:10056000F090570187E090E029833A834B835C83C6
:100570000E94780DFC0129813A8132832183108306
:10058000D70112962D913C911397D90113968D9115
:100590009C911497DC011696FC93EE931597948327
:1005A0008383D9011496FC93EE93139736832583A6
:1005B000F701848195810196958384830F900F9034
:1005C0000F900F90DF91CF911F910F91FF90EF90BF
:1005D00008951F920F920FB60F9211242F933F93FD
:1005E0004F935F936F937F938F939F93AF93BF933B
:1005F000EF93FF938EE591E00E942605FF91EF9126
:10060000BF91AF919F918F917F916F915F914F912A
:100610003F912F910F900FBE0F901F9018951F9232
:100620000F920FB60F9211242F938F939F93EF93F6
:10063000FF93E0916E01F0916F018081E091740170
:10064000F091750182FD12C09081809177018F5FDA
:100650008F7320917801821751F0E0917701F0E0DB
:10066000E25AFE4F958F8093770101C08081FF9100
:10067000EF919F918F912F910F900FBE0F901F9030
:1006800018951F93CF93DF93282F30E0F901E4589A
:10069000FF4F8491F901E057FF4FD491F901E255E2
:1006A000FF4FC491CC23C9F0162F81110E948D00F9
:1006B000EC2FF0E0EE0FFF1FEC55FF4FA591B4912A
:1006C0008FB7F894111105C09C91ED2FE095E923A7
:1006D00002C0EC91ED2BEC938FBFDF91CF911F9176
:1006E000089560E086E00E94410360E087E00E9498
:1006F000410360E088E00E94410360E082E00E94E4
:10070000410360E083E00E94410360E084E00E94D6
:10071000410360E085E00E94410360E08EE00C94BC
:10072000410361E00C944103CF92DF92EF92FF927C
:100730001F93CF93DF93182FE0904F01F09050015B
:10074000F701C680D780CEE0D0E0612FC6010E94BD
:100750006A01892B99F1912F9F7D933419F488E0D8
:1007600090E01DC0943419F482E090E018C09534F4
:1007700019F483E090E013C0963419F484E090E01B
:100780000EC0973419F485E090E009C0913419F453
:1007900086E090E004C0923421F487E090E00E946B
:1007A0009103612FF70186819781DF91CF911F918E
:1007B000FF90EF90DF90CF900C946A01219729F67B
:1007C00080E090E0DF91CF911F91FF90EF90DF905C
:1007D000CF900895CF93DF9390E0FC01E057FF4F57
:1007E0002491FC01E255FF4F8491882361F190E050
:1007F000880F991FFC01E859FF4FC591D491FC0166
:10080000EC55FF4FA591B491611109C09FB7F894C1
:100810008881209582238883EC912E230BC062303F
:1008200061F49FB7F8943881822F80958323888361
:10083000EC912E2B2C939FBF06C08FB7F894E881C4
:100840002E2B28838FBFDF91CF9108951F920F9297
:100850000FB60F9211242F933F938F939F93AF93D3
:10086000BF938091470190914801A0914901B091B7
:100870004A013091460123E0230F2D3720F40196E1
:10088000A11DB11D05C026E8230F0296A11DB11DB3
:10089000209346018093470190934801A09349011A
:1008A000B0934A0180914B0190914C01A0914D0170
:1008B000B0914E010196A11DB11D80934B01909303
:1008C0004C01A0934D01B0934E01BF91AF919F9108
:1008D0008F913F912F910F900FBE0F901F90189501
:1008E000FC01918D828D981761F0828DDF01A80F38
:1008F000B11D5D968C91928D9F5F9F73928F90E05A
:1009000008958FEF9FEF0895FC01918D828D9817C8
:1009100031F0828DE80FF11D858D90E008958FEF05
:100920009FEF0895FC01918D228D892F90E0805CCE
:100930009F4F821B91098F739927089580E090E063
:10094000892B29F00E94860181110C9400000895E2
:10095000CF92DF92EF92FF920F931F93CF93DF938B
:100960006C017A018B01C0E0D0E0CE15DF0589F083
:10097000D8016D918D01D601ED91FC910190F0812E
:10098000E02DC6010995892B11F47E0102C0219644
:10099000ECCFC701DF91CF911F910F91FF90EF90A6
:1009A000DF90CF9008950E94A50E8F929F92AF92F4
:1009B000BF920F931F93CF93DF93CDB7DEB7A1976D
:1009C0000FB6F894DEBF0FBECDBF19A2423008F4B7
:1009D0004AE08E010F5D1F4F842E912CA12CB12C6B
:1009E000A50194010E94170DE62FB901CA0101501B
:1009F0001109EA3014F4E05D01C0E95CD801EC9320
:100A0000232B242B252B61F70115110571F0F8011B
:100A100001900020E9F73197AF01401B510BB8015D
:100A20008EE591E00E94A80402C080E090E0A196CB
:100A30000FB6F894DEBF0FBECDBFDF91CF911F91EF
:100A40000F91BF90AF909F908F900895FC01848D7F
:100A5000DF01A80FB11DA35ABF4F2C91848D90E0E8
:100A600001968F739927848FA689B7892C93A089C3
:100A7000B1898C9180648C93938D848D981306C07A
:100A80000288F389E02D80818F7D80830895EF9225
:100A9000FF920F931F93CF93DF93EC0181E0888F38
:100AA0009B8D8C8D981305C0E889F989808185FD1F
:100AB00024C0F62E0B8D10E00F5F1F4F0F73112710
:100AC000E02E8C8DE8120CC00FB607FCFACFE88937
:100AD000F989808185FFF5CFCE010E942605F1CFEF
:100AE0008B8DFE01E80FF11DE35AFF4FF0820B8F53
:100AF000EA89FB898081806207C0EE89FF89608373
:100B0000E889F98980818064808381E090E0DF91C9
:100B1000CF911F910F91FF90EF900895CF93DF93A6
:100B2000EC01888D8823C9F0EA89FB89808185FDE5
:100B300005C0A889B9898C9186FD0FC00FB607FC46
:100B4000F5CF808185FFF2CFA889B9898C9185FF87
:100B5000EDCFCE010E942605E7CFDF91CF9108951A
:100B60001F920F920FB60F9211242F933F934F9322
:100B70005F936F937F938F939F93AF93BF93EF9305
:100B8000FF9380910C0290910D02A0910E02B09102
:100B90000F02892B8A2B8B2B59F180910B02E0914C
:100BA0000902F0910A0290818927808380910C02CA
:100BB00090910D02A0910E02B0910F021816190625
:100BC0001A061B060CF03DC080910C0290910D029C
:100BD000A0910E02B0910F020197A109B109809373
:100BE0000C0290930D02A0930E02B0930F0229C045
:100BF00080912B01E2ECF0E0E4919FEF90932B01C8
:100C0000E130B9F098F0E230C9F4909170009D7F26
:100C10009093700091E09093B0009091B100987F14
:100C200094609093B1001092B30008C010926E00CF
:100C300005C090916F009D7F90936F0060E00E94CF
:100C40004103FF91EF91BF91AF919F918F917F9160
:100C50006F915F914F913F912F910F900FBE0F9029
:100C60001F9018953F924F925F926F927F928F9252
:100C70009F92AF92BF92CF92DF92EF92FF920F932B
:100C80001F93CF93DF9300D000D0CDB7DEB7909104
:100C90002B01981721F09F3F09F036C204C0E2EC07
:100CA000F0E0349081C080932B01E2ECF0E0E4911D
:100CB000EF3F09F429C2E13031F1E23009F44BC0D1
:100CC000E11171C014BC15BC94B5926094BD95B58A
:100CD000916095BDA82FB0E0FD01E255FF4FE49172
:100CE000F0E0EE0FFF1FEC55FF4F059114911093AC
:100CF00000020093FF01FD01E057FF4FE491E093F4
:100D0000FE01312C53C0109280001092810090910E
:100D10008100986090938100909181009160909300
:100D20008100A82FB0E0FD01E255FF4FE491F0E013
:100D3000EE0FFF1FEC55FF4F059114911093FD012D
:100D40000093FC01FD01E057FF4FE491E093FB01AC
:100D5000332433942BC01092B0001092B1009091C4
:100D6000B00092609093B0009091B1009160909328
:100D7000B100A82FB0E0FD01E255FF4FE491F0E093
:100D8000EE0FFF1FEC55FF4F0591149110930A02CF
:100D900000930902FD01E057FF4FE491E0930B023D
:100DA00002E0302E03C03E2E37FCAEC129013A01CD
:100DB0008B0161E00E94EA034801A12CB12C832D34
:100DC0008D7F09F0BBC060E072E18AE790E0A50189
:100DD00094010E94390D29833A834B835C83690116
:100DE0007A0121E0C21AD108E108F1088FEFC81694
:100DF000D104E104F10409F008F44CC060E472E4A9
:100E00008FE090E0A50194010E94390D69017A01FB
:100E1000E1E0CE1AD108E108F108F2E03F1220C06B
:100E20002FEFC216D104E104F10409F008F46AC1FD
:100E300060E970ED83E090E0A50194010E94390D16
:100E400069017A0181E0C81AD108E108F108EFEFE1
:100E5000CE16D104E104F10409F0D0F583E067C0B7
:100E6000FFEFCF16D104E104F104B1F0A8F068E47B
:100E700078EE81E090E0A50194010E94390D6901AE
:100E80007A0181E0C81AD108E108F108332009F499
:100E9000DFC02FC181E001C082E03320A1F047C054
:100EA00089819A81AB81BC812AE0B595A7959795F8
:100EB00087952A95D1F76C017D0121E0C21AD108EE
:100EC000E108F10885E095B5987F892B85BD6FC055
:100ED00068E478EE81E090E0A50194010E94390D6C
:100EE00069017A01F1E0CF1AD108E108F1082FEF8A
:100EF000C216D104E104F10409F008F4A7C064E2C9
:100F000074EF80E090E0A50194010E94390D690121
:100F10007A01E1E0CE1AD108E108F108FFEFCF161F
:100F2000D104E104F10411F008F0B4C085E090911F
:100F3000B100987F892B8093B10039C060E072E1E5
:100F40008AE790E0A50194010E94390D69017A01B8
:100F500081E0C81AD108E108F108C114D104E1E028
:100F6000EE06F10488F068E478EE81E090E0A501F7
:100F700094010E94390D69017A01F1E0CF1AD1087C
:100F8000E108F10893E001C091E021E032120FC0C6
:100F900080918100887F892B8093810041145104C6
:100FA0006104710449F42FEF3FEFA9012DC04114F2
:100FB00051046104710471F0D801AA0FBB1FA30191
:100FC00092010E94580D28EE33E040E050E00E946C
:100FD000170D03C02FEF3FEFA90181E03816A1F0F4
:100FE000E2E03E1619F131108FC0C7BC2093050214
:100FF00030930602409307025093080280916E00DE
:10100000826080936E0080C0D0928900C092880078
:101010002093010230930202409303025093040292
:1010200080916F00826080936F006EC0C092B300A9
:1010300020930C0230930D0240930E0250930F0246
:10104000809170008260809370005EC084E06FCFFA
:10105000FFEFCF16D104E104F104D1F0C8F062E152
:101060007AE780E090E0A50194010E94390D6901C2
:101070007A0181E0C81AD108E108F108EFEFCE1635
:10108000D104E104F10411F008F00ACF84E01BCF91
:1010900083E019CF62E17AE780E090E0A501940156
:1010A0000E94390D69017A0181E0C81AD108E1086E
:1010B000F108EFEFCE16D104E104F104C1F0B8F06D
:1010C00089819A81AB81BC814AE0B595A7959795B6
:1010D00087954A95D1F76C017D0121E0C21AD108AC
:1010E000E108F108332009F4EDCE87E020CF86E057
:1010F000D4CEFFEFCF16D104E104F10409F050F68D
:1011000084E0CBCE82E013CF0F900F900F900F9022
:10111000DF91CF911F910F91FF90EF90DF90CF90D3
:10112000BF90AF909F908F907F906F905F904F9007
:101130003F900895EEE5F1E01382128288EE93E08D
:10114000A0E0B0E084839583A683B78386E391E033
:101150009183808385EC90E09587848784EC90E090
:101160009787868780EC90E0918B808B81EC90E074
:10117000938B828B82EC90E0958B848B86EC90E055
:10118000978B868B118E128E138E148E0895789401
:1011900084B5826084BD84B5816084BD85B582607C
:1011A00085BD85B5816085BD80916E00816080932D
:1011B0006E00109281008091810082608093810096
:1011C00080918100816080938100809180008160A6
:1011D000809380008091B10084608093B100809101
:1011E000B00081608093B00080917A008460809329
:1011F0007A0080917A00826080937A0080917A00F0
:10120000816080937A0080917A00806880937A0070
:101210001092C10061E089E00E94EA0360E08AE088
:101220000E94EA0360E08EE00E94410360E08EE0ED
:101230000E94EA0386E090E00E94780D7C01DC01C8
:1012400015961C921E92149787E090E00E94780DEC
:101250006C01FC01128211821082D7018D939C9344
:1012600087E090E00E94780DEC011A8219821882C2
:10127000F70193838283D60116969C938E931597DC
:1012800014961C921E9213971E821D82DC82CB82C2
:10129000ECE1F1E001900020E9F731978F010C516A
:1012A000114050E0A52E51E0B52E6CE1C62E61E054
:1012B000D62EC6018C5191408017910714F5F60186
:1012C00071906F01D5018D909D905D0187E090E058
:1012D0000E94780DFC01928281827082AB81BC8178
:1012E00016969C938E931597B483A3839C838B83CC
:1012F000D683C583F7018481958101969583848384
:10130000D8CFF0925B01E0925A01F0925901E0923D
:10131000580186E090E00E94780DEC010E94900157
:10132000D0935701C093560188E090E00E94780D59
:10133000EC0184E190E00E94780D9983888388E233
:1013400090E00E94780D9B838A8384E190E09D83E6
:101350008C8380E090E02C813D818217930784F498
:10136000E881F981E80FF91F10829C01220F331FD9
:10137000EA81FB81E20FF31F118210820196EBCF0D
:1013800084E090E00E94780DDC0111961C921E9280
:1013900013961C921E9212979F838E83D0935001B6
:1013A000C0934F0146E051E063E60E940C0246E222
:1013B00051E064E68E819F810E940C024AE451E074
:1013C00065E68E819F810E940C024DE551E066E644
:1013D0008E819F810E940C0248E851E067E68E8171
:1013E0009F810E940C0248EB51E061E68E819F8153
:1013F0000E940C024EEE51E062E68E819F810E94B7
:101400000C024BE052E063E48E819F810E940C024B
:101410004BE452E064E48E819F810E940C0243E918
:1014200052E065E48E819F810E940C024BEB52E0FA
:1014300066E48E819F810E940C0240E153E067E4E4
:101440008E819F810E940C0240E253E061E48E8114
:101450009F810E940C024CED53E062E48E819F81DB
:101460000E940C02EE81FF81C080D1800D2C000C07
:10147000EE08FF08F7FE14C0E0915E01F0915F01F5
:101480000190F081E02D6DE28EE591E009956627EF
:101490007727CB016C197D098E099F094AE003C0AB
:1014A0004AE0C701B6010E94D50442E050E062E480
:1014B00071E08EE591E00E94A80480E2982E01E0A0
:1014C00010E096E9892E8AE00E94B6007C018FE048
:1014D0000E94B600892B29F180915C0190915D01F9
:1014E000892BF9F480915A0190915B0190935901F5
:1014F00080935801C0915601D0915701209731F047
:10150000CE010E941E02CE010E940D0E86E090E0E8
:101510000E94780DEC010E949001D0935701C09376
:101520005601E0915601F0915701309741F08481C6
:101530009581892B21F0F0935901E0935801EA94A9
:10154000EF2809F040C0A0905801B0905901D50192
:10155000ED91FC91C581D681F50182819381C817F7
:10156000D90709F4E5C08881882349F129813A81A6
:101570002115310521F1829E6001839ED00C11243A
:101580000D2C000CEE08FF08803229F4C701B601CB
:101590000E9404010EC00E949403A7019601BC01A1
:1015A00089E00E943206C701B6010E9404010E9430
:1015B00071036FE070E080E090E00E9404010D8014
:1015C000DE81C02DC9CF8CE00E94B60020915C0165
:1015D00030915D01892B29F1232B49F410935D0192
:1015E00000935C0161E08BE00E94410313C0109204
:1015F0005D0110925C0160E08BE00E94410386E097
:1016000090E00E94780DEC010E949001D093570168
:10161000C093560164EF71E080E090E00E94040105
:1016200087C02130310591F4C09155018C2F8F7DF9
:10163000833411F488E004C0843409F0E2C182E00C
:101640000E94B600892B09F47EC0ECC188E00E949C
:10165000B600892B49F08DE00E94B600892B11F06D
:1016600083E45CC083E65AC082E00E94B600892B06
:1016700049F08DE00E94B600892B11F084E44EC041
:1016800084E64CC083E00E94B600892B49F08DE0CF
:101690000E94B600892B11F085E440C085E63EC06B
:1016A00084E00E94B600892B49F08DE00E94B600CC
:1016B000892B11F086E432C086E630C085E00E94B6
:1016C000B600892B49F08DE00E94B600892B11F0FD
:1016D00087E424C087E622C086E00E94B600892BFA
:1016E00049F08DE00E94B600892B11F081E416C00C
:1016F00081E614C087E00E94B600892B39F460E0CF
:1017000089E00E9441030E94710312C08DE00E9493
:10171000B600892B11F082E401C082E60E94940396
:101720002FE030E040E050E0BC0189E00E9432064A
:101730000E949E04C8CE813409F070C186E00E94E8
:10174000B600892B21F40E9458021092550188E0BE
:101750000E94B600892B39F18DE00E94B600892BDA
:1017600089F083E40E9494032FE030E040E050E0F1
:10177000BC0189E00E943206809155018334C1F298
:1017800083E424C183E60E9494032FE030E040E02C
:1017900050E0BC0189E00E943206809155018336F9
:1017A00039F283E613C182E00E94B600892B49F129
:1017B0008DE00E94B600892B91F084E40E9494038E
:1017C0002FE030E040E050E0BC0189E00E943206AA
:1017D00080915501843409F4ABCF84E4F7C084E6EA
:1017E0000E9494032FE030E040E050E0BC0189E02B
:1017F0000E94320680915501843609F499CF84E61F
:10180000E5C083E00E94B600892B49F18DE00E947B
:10181000B600892B91F085E40E9494032FE030E01C
:1018200040E050E0BC0189E00E9432068091550101
:10183000853409F47DCF85E4C9C085E60E94940310
:101840002FE030E040E050E0BC0189E00E94320629
:1018500080915501853609F46BCF85E6B7C084E0E9
:101860000E94B600892B49F18DE00E94B600892BB9
:1018700091F086E40E9494032FE030E040E050E0D5
:10188000BC0189E00E94320680915501863409F43A
:101890004FCF86E49BC086E60E9494032FE030E0A1
:1018A00040E050E0BC0189E00E9432068091550181
:1018B000863609F43DCF86E689C085E00E94B600F1
:1018C000892B49F18DE00E94B600892B91F087E4C5
:1018D0000E9494032FE030E040E050E0BC0189E03A
:1018E0000E94320680915501873409F421CF87E4A4
:1018F0006DC087E60E9494032FE030E040E050E0A6
:10190000BC0189E00E94320680915501873609F4B6
:101910000FCF87E65BC086E00E94B600892B49F1B5
:101920008DE00E94B600892B91F081E40E9494031F
:101930002FE030E040E050E0BC0189E00E94320638
:1019400080915501813409F4F3CE81E43FC081E6F2
:101950000E9494032FE030E040E050E0BC0189E0B9
:101960000E94320680915501813609F4E1CE81E66C
:101970002DC087E00E94B600892B59F18DE00E94AE
:10198000B600892B91F082E40E9494032FE030E0AE
:1019900040E050E0BC0189E00E9432068091550190
:1019A000823409F4C5CE82E411C082E60E94940319
:1019B0002FE030E040E050E0BC0189E00E943206B8
:1019C00080915501823609F4B3CE82E680935501A9
:1019D0000DC08EE00E94B600892B09F490CE809154
:1019E0005501803209F4A4CE909255010E943E0127
:1019F000609351017093520180935301909354016D
:101A000097CE853411F483E01BCE863411F484E044
:101A100017CE873409F08FCE85E012CE823411F4D0
:101A200087E08DCEC03209F092CE8EE088CEA1E262
:101A30001A2EAA1BBB1BFD010DC0AA1FBB1FEE1F48
:101A4000FF1FA217B307E407F50720F0A21BB30B93
:101A5000E40BF50B661F771F881F991F1A9469F70F
:101A600060957095809590959B01AC01BD01CF016B
:101A70000895052E97FB1EF400940E94500D57FD0B
:101A800007D00E94170D07FC03D04EF40C94500DA4
:101A900050954095309521953F4F4F4F5F4F08959A
:101AA00090958095709561957F4F8F4F9F4F0895CA
:101AB0000E94690DA59F900DB49F900DA49F800D6D
:101AC000911D11240895EE0FFF1F0590F491E02D54
:101AD0000994A29FB001B39FC001A39F700D811D07
:101AE0001124911DB29F700D811D1124911D089527
:101AF000CF93DF938230910510F482E090E0E09183
:101B00001202F091130220E030E0C0E0D0E0309704
:101B100011F14081518148175907C0F04817590702
:101B200061F482819381209719F09B838A832BC073
:101B3000909313028093120226C02115310519F0EB
:101B40004217530718F49A01BE01DF01EF0102802A
:101B5000F381E02DDCCF2115310509F1281B390B6C
:101B60002430310590F412968D919C911397611554
:101B7000710521F0FB019383828304C090931302CB
:101B800080931202FD01329644C0FD01E20FF31F63
:101B900081939193225031092D933C933AC0209127
:101BA000100230911102232B41F420912E0130912B
:101BB0002F01309311022093100220912C013091BB
:101BC0002D012115310541F42DB73EB7409130016B
:101BD00050913101241B350BE0911002F09111025C
:101BE000E217F307A0F42E1B3F0B2817390778F0F4
:101BF000AC014E5F5F4F2417350748F04E0F5F1F53
:101C000050931102409310028193919302C0E0E03F
:101C1000F0E0CF01DF91CF9108950F931F93CF9301
:101C2000DF93009709F48CC0FC0132971382128273
:101C300000911202109113020115110581F4208107
:101C40003181820F931F20911002309111022817C9
:101C5000390779F5F0931102E093100271C0D801B1
:101C600040E050E0AE17BF0750F412962D913C9122
:101C70001397AD012115310509F1D901F3CF9D016C
:101C8000DA013383228360817181860F971F821767
:101C9000930769F4EC0128813981260F371F2E5FE5
:101CA0003F4F318320838A819B8193838283452B9D
:101CB00029F4F0931302E093120242C01396FC93AE
:101CC000EE931297ED01499159919E01240F351F12
:101CD000E217F30771F480819181840F951F0296BA
:101CE00011969C938E938281938113969C938E93ED
:101CF0001297E0E0F0E0D80112968D919C91139735
:101D0000009719F0F8018C01F6CF8D919C91980104
:101D10002E5F3F4F820F931F2091100230911102CE
:101D20002817390769F4309729F41092130210929A
:101D3000120202C013821282109311020093100249
:101D4000DF91CF911F910F91089581E090E0F89479
:081D50000C94AA0EF894FFCFD9
:101D5800010001000300010002000200040001006C
:101D680001000300010002000200040061624362F6
:101D78004345626565616761436700FF00001402BF
:101D88008000000000004705A80492047004840441
:061D98008E050D0A00009B
:00000001FF
