:100000000C9463000C948B000C948B000C948B006C
:100010000C948B000C948B000C948B000C94CE02EF
:100020000C948B000C948B000C948B000C948B0024
:100030000C948B000C948B000C948B000C948B0014
:100040000C94A8030C948B000C9476030C9450032E
:100050000C948B000C948B000C948B000C948B00F4
:100060000C948B000C948B000000000024002700EF
:100070002A000000000023002600290000000008DC
:10008000000201000003040700000000000000005F
:10009000010204081020408001020408102001021F
:1000A0000408102000000000250028002B00040494
:1000B0000404040404040202020202020303030310
:1000C00003030200540711241FBECFEFD8E0DEBFA8
:1000D000CDBF11E0A0E0B1E0EAECFFE002C0059086
:1000E0000D92A636B107D9F722E0A6E6B1E001C02D
:1000F0001D92A132B207E1F710E0C3E6D0E004C0E0
:100100002197FE010E94C907C236D107C9F70E9494
:10011000F2030C94E3070C940000FC01918D828D96
:10012000981761F0828DDF01A80FB11D5D968C914B
:10013000928D9F5F9F73928F90E008958FEF9FEF56
:100140000895FC01918D828D981731F0828DE80F12
:10015000F11D858D90E008958FEF9FEF0895FC01CC
:10016000918D228D892F90E0805C9F4F821B910999
:100170008F7399270895FC01848DDF01A80FB11DAD
:10018000A35ABF4F2C91848D90E001968F739927CD
:10019000848FA689B7892C93A089B1898C918064BA
:1001A0008C93938D848D981306C00288F389E02D7B
:1001B00080818F7D80830895EF92FF920F931F932C
:1001C000CF93DF93EC0181E0888F9B8D8C8D98130A
:1001D00005C0E889F989808185FD24C0F62E0B8D44
:1001E00010E00F5F1F4F0F731127E02E8C8DE81268
:1001F0000CC00FB607FCFACFE889F989808185FF2A
:10020000F5CFCE010E94BB00F1CF8B8DFE01E80F30
:10021000F11DE35AFF4FF0820B8FEA89FB89808141
:10022000806207C0EE89FF896083E889F98980814F
:100230008064808381E090E0DF91CF911F910F91E6
:10024000FF90EF900895CF93DF93EC01888D882382
:10025000C9F0EA89FB89808185FD05C0A889B98933
:100260008C9186FD0FC00FB607FCF5CF808185FF0E
:10027000F2CFA889B9898C9185FFEDCFCE010E947C
:10028000BB00E7CFDF91CF91089584E891E00E9411
:10029000AF0021E0892B09F420E0822F089580E04F
:1002A00090E0892B29F00E94450181110C940000F7
:1002B0000895CF92DF92EF92FF920F931F93CF9307
:1002C000DF936C017A018B01C0E0D0E0CE15DF0531
:1002D00089F0D8016D918D01D601ED91FC910190CD
:1002E000F081E02DC6010995892B11F47E0102C031
:1002F0002196ECCFC701DF91CF911F910F91FF9015
:10030000EF90DF90CF900895833081F028F4813012
:1003100099F08230A1F008958730A9F08830B9F0C3
:100320008430D1F4809180008F7D03C08091800063
:100330008F7780938000089584B58F7702C084B54D
:100340008F7D84BD08958091B0008F7703C0809128
:10035000B0008F7D8093B00008951F93CF93DF93FB
:10036000282F30E0F901E458FF4F8491F901E0575C
:10037000FF4FD491F901E255FF4FC491CC23C9F04E
:10038000162F81110E948401EC2FF0E0EE0FFF1F69
:10039000EC55FF4FA591B4918FB7F894111105C09A
:1003A0009C91ED2FE095E92302C0EC91ED2BEC93AD
:1003B0008FBFDF91CF911F910895CF93DF9390E08E
:1003C000FC01E057FF4F2491FC01E255FF4F84915F
:1003D000882361F190E0880F991FFC01E859FF4FD5
:1003E000C591D491FC01EC55FF4FA591B4916111D9
:1003F00009C09FB7F8948881209582238883EC9167
:100400002E230BC0623061F49FB7F8943881822F9D
:10041000809583238883EC912E2B2C939FBF06C05D
:100420008FB7F894E8812E2B28838FBFDF91CF916F
:1004300008953FB7F89480916B0190916C01A09161
:100440006D01B0916E0126B5A89B05C02F3F19F034
:100450000196A11DB11D3FBFBA2FA92F982F882744
:10046000820F911DA11DB11DBC01CD0142E0660F9F
:10047000771F881F991F4A95D1F708958F929F92F1
:10048000AF92BF92CF92DF92EF92FF926B017C010D
:100490000E9419024B015C01C114D104E104F10472
:1004A000F1F00E941902DC01CB0188199909AA090F
:1004B000BB09883E9340A105B10570F321E0C21A43
:1004C000D108E108F10888EE880E83E0981EA11C8F
:1004D000B11CC114D104E104F10419F7DDCFFF9080
:1004E000EF90DF90CF90BF90AF909F908F90089546
:1004F00061E00C94AD018F929F92AF92BF920F93E7
:100500001F93CF93DF93CDB7DEB7A1970FB6F894C3
:10051000DEBF0FBECDBF19A2423008F44AE08E0103
:100520000F5D1F4F842E912CA12CB12CA50194019D
:100530000E948107E62FB901CA0101501109EA3072
:1005400014F4E05D01C0E95CD801EC93232B242B6B
:10055000252B61F70115110571F0F80101900020BC
:10056000E9F73197AF01401B510BB80184E891E0E6
:100570000E94590102C080E090E0A1960FB6F89465
:10058000DEBF0FBECDBFDF91CF911F910F91BF9006
:10059000AF909F908F9008950E94DE071F920F9258
:1005A0000FB60F9211242F933F934F935F936F9346
:1005B0007F938F939F93AF93BF93EF93FF9380911C
:1005C000800190918101A0918201B0918301892BDA
:1005D0008A2B8B2B59F180917F01E0917D01F09165
:1005E0007E01908189278083809180019091810193
:1005F000A0918201B0918301181619061A061B06F4
:100600000CF03DC08091800190918101A091820108
:10061000B09183010197A109B10980938001909362
:100620008101A0938201B093830129C080910F01C1
:10063000E2ECF0E0E4919FEF90930F01E130B9F02C
:1006400098F0E230C9F4909170009D7F9093700013
:1006500091E09093B0009091B100987F9460909356
:10066000B1001092B30008C010926E0005C09091C6
:100670006F009D7F90936F0060E00E94AD01FF913D
:10068000EF91BF91AF919F918F917F916F915F910A
:100690004F913F912F910F900FBE0F901F90189583
:1006A0001F920F920FB60F9211242F933F934F93E7
:1006B0005F936F937F938F939F93AF93BF93EF93CA
:1006C000FF9384E891E00E94BB00FF91EF91BF91FE
:1006D000AF919F918F917F916F915F914F913F91DA
:1006E0002F910F900FBE0F901F9018951F920F9291
:1006F0000FB60F9211242F938F939F93EF93FF9335
:10070000E0919401F09195018081E0919A01F0913E
:100710009B0182FD12C0908180919D018F5F8F733C
:1007200020919E01821751F0E0919D01F0E0EC577D
:10073000FE4F958F80939D0101C08081FF91EF91C5
:100740009F918F912F910F900FBE0F901F90189532
:100750001F920F920FB60F9211242F933F938F93F6
:100760009F93AF93BF938091670190916801A0918F
:100770006901B0916A013091660123E0230F2D37A2
:1007800020F40196A11DB11D05C026E8230F029695
:10079000A11DB11D209366018093670190936801AC
:1007A000A0936901B0936A0180916B0190916C01F3
:1007B000A0916D01B0916E010196A11DB11D8093B4
:1007C0006B0190936C01A0936D01B0936E01BF918A
:1007D000AF919F918F913F912F910F900FBE0F90EE
:1007E0001F901895CF93DF93CDB7DEB7E6970FB67E
:1007F000F894DEBF0FBECDBF789484B5826084BD0F
:1008000084B5816084BD85B5826085BD85B5816014
:1008100085BD80916E00816080936E001092810092
:10082000809181008260809381008091810081604D
:10083000809381008091800081608093800080910E
:10084000B10084608093B1008091B000816080939A
:10085000B00080917A00846080937A0080917A0061
:10086000826080937A0080917A00816080937A0020
:1008700080917A00806880937A001092C10061E0D4
:1008800089E00E94DD0160E08AE00E94DD01E0E095
:10089000F1E001900020E9F731979F0120503140AD
:1008A0003EAB2DABE6E8F0E08491EAE9F0E014918C
:1008B000E8EBF0E0F490FF20A1F081110E948401A8
:1008C000EF2DF0E0EE0FFF1FEE58FF4FA591B49112
:1008D000EC911E2391E080E009F490E0E92EF82EDF
:1008E00002C0E12CF12CB7010F2C000C880B990BE6
:1008F0004AE00E947B02EA94EF2809F074C24AE4BD
:1009000051E05CAB4BAB80E091E098AB8FA78FA53B
:1009100098A9805091402DA93EA9821793070CF009
:1009200062C2EBA9FCA981919191FCABEBAB26E9EA
:10093000289FA001299F500D11245AAB49ABEFA568
:10094000F8A98191F8ABEFA72A01550F660877083F
:10095000803229F4C301B2010E943E023DC29EE0F2
:10096000E0E1F1E0DE015D9601900D929A95E1F7EC
:100970009CE1EEE1F1E0DE01119601900D929A9575
:10098000E1F7FE017D96E12CF12C9191981330C096
:100990008F7D833419F483E090E01DC0843419F412
:1009A00084E090E018C0853419F485E090E013C02D
:1009B000863419F486E090E00EC0873419F487E09D
:1009C00090E009C0813419F488E090E004C08234DA
:1009D00021F482E090E00E947802EE0CFF1CE1E03E
:1009E000F0E0EC0FFD1FEE0DFF1D2080318009C0EF
:1009F0002FEFE21AF20A3EE0E316F10431F6212C61
:100A0000312C80910F01893021F4E2ECF0E0149157
:100A100078C08F3F09F0C0C189E080930F01E2ECFC
:100A2000F0E014911F3F09F4B7C1113011F11230F9
:100A300009F443C0111165C014BC15BC84B58260B3
:100A400084BD85B5816085BDE7EBF0E08491E82F3A
:100A5000F0E0EE0FFF1FEC55FF4F859194919093BE
:100A6000740180937301E9E9F0E08491809372014D
:100A70004AC01092800010928100809181008860AD
:100A80008093810080918100816080938100E7EBF9
:100A9000F0E08491E82FF0E0EE0FFF1FEC55FF4FE0
:100AA000859194919093710180937001E9E9F0E050
:100AB000849180936F0111E026C01092B0001092D3
:100AC000B1008091B00082608093B0008091B1004D
:100AD00081608093B100E7EBF0E08491E82FF0E0D3
:100AE000EE0FFF1FEC55FF4F8591949190937E017F
:100AF00080937D01E9E9F0E0849180937F0112E029
:100B000002C017FD49C161E089E00E94DD01410199
:100B1000A12CB12C812F8D7F09F0BAC060E072E169
:100B20008AE790E0A50194010E94A3072BA73CA7A8
:100B30004DA75EA769017A01F1E0CF1AD108E1085B
:100B4000F1082FEFC216D104E104F10409F008F412
:100B50004BC060E472E48FE090E0A50194010E9434
:100B6000A30769017A0181E0C81AD108E108F108F8
:100B7000123001F59FEFC916D104E104F10409F028
:100B800008F490C160E970ED83E090E0A501940164
:100B90000E94A30769017A01E1E0CE1AD108E108B9
:100BA000F108FFEFCF16D104E104F10409F0D0F50C
:100BB00083E067C02FEFC216D104E104F104B1F065
:100BC000A8F068E478EE81E090E0A50194010E942D
:100BD000A30769017A0181E0C81AD108E108F10888
:100BE000112309F405C155C181E001C082E0112340
:100BF000A1F047C08BA59CA5ADA5BEA52AE0B595E3
:100C0000A795979587952A95D1F76C017D01F1E01D
:100C1000CF1AD108E108F10885E095B5987F892BB6
:100C200085BD6EC068E478EE81E090E0A501940196
:100C30000E94A30769017A0181E0C81AD108E1087E
:100C4000F1089FEFC916D104E104F10409F008F49A
:100C5000CDC064E274EF80E090E0A50194010E94B1
:100C6000A30769017A0191E0C91AD108E108F108E6
:100C7000EFEFCE16D104E104F10411F008F0DAC070
:100C800085E09091B100987F892B8093B10038C0A6
:100C900060E072E18AE790E0A50194010E94A30759
:100CA00069017A0181E0C81AD108E108F108C1148C
:100CB000D10491E0E906F10488F068E478EE81E07F
:100CC00090E0A50194010E94A30769017A01E1E087
:100CD000CE1AD108E108F10893E001C091E011308B
:100CE00079F480918100887F892B80938100411461
:100CF00051046104710449F42FEF3FEFA9012BC0A7
:100D0000411451046104710471F09101220F331FE9
:100D1000A9A9BAA90E94C20728EE33E040E050E03A
:100D20000E94810703C02FEF3FEFA901113099F016
:100D3000123019F1111130C0C7BC209379013093E2
:100D40007A0140937B0150937C0180916E00826018
:100D500080936E0021C0D0928900C09288002093B9
:100D6000750130937601409377015093780180911B
:100D70006F00826080936F000FC0C092B300209319
:100D800080013093810140938201509383018091CF
:100D90007000826080937000C301B2010E943E0225
:100DA00060E088E00E94AD0160E082E00E94AD0159
:100DB00060E083E00E94AD0160E084E00E94AD014C
:100DC00060E085E00E94AD0160E086E00E94AD0138
:100DD00060E087E00E94AD016FE070E080E090E0AD
:100DE0000E943E0294CD0E944F0151CD84E049CF34
:100DF0002FEFC216D104E104F104D1F0C8F062E192
:100E00007AE780E090E0A50194010E94A3076901C0
:100E10007A01E1E0CE1AD108E108F108FFEFCF1620
:100E2000D104E104F10411F008F0E4CE84E0F5CE41
:100E300083E0F3CE62E17AE780E090E0A5019401DF
:100E40000E94A30769017A0181E0C81AD108E1086C
:100E5000F1089FEFC916D104E104F104C1F0B8F024
:100E60008BA59CA5ADA5BEA55AE0B595A795979570
:100E700087955A95D1F76C017D01F1E0CF1AD10821
:100E8000E108F108112309F4C7CE87E0FACE86E025
:100E9000AECEEFEFCE16D104E104F10409F050F626
:100EA00084E0A5CE82E0EDCEE4E8F1E01382128288
:100EB00088EE93E0A0E0B0E084839583A683B783B7
:100EC0008EE391E09183808385EC90E09587848721
:100ED00084EC90E09787868780EC90E0918B808B04
:100EE00081EC90E0938B828B82EC90E0958B848BED
:100EF00086EC90E0978B868B118E128E138E148E5B
:100F00000895A1E21A2EAA1BBB1BFD010DC0AA1F4A
:100F1000BB1FEE1FFF1FA217B307E407F50720F062
:100F2000A21BB30BE40BF50B661F771F881F991FDD
:100F30001A9469F760957095809590959B01AC0126
:100F4000BD01CF010895052E97FB1EF400940E9469
:100F5000BA0757FD07D00E94810707FC03D04EF463
:100F60000C94BA0750954095309521953F4F4F4FBF
:100F70005F4F089590958095709561957F4F8F4F45
:100F80009F4F08950E94CF07B7FF0895821B930BD0
:100F90000895EE0FFF1F0590F491E02D0994A29F94
:100FA000B001B39FC001A39F700D811D1124911D3D
:100FB000B29F700D811D1124911D089581E090E074
:0A0FC000F8940C94E307F894FFCFB7
:100FCA00616243624345626565616761436700FF29
:100FDA006364656667616243444546474142060168
:100FEA0026014A015D018801B801EE010B024B029C
:100FFA009302BB0210032003DC0300000000DC00A4
:10100A005901AF008D00A100230101000100030076
:10101A0001000200020004000100010003000100B7
:06102A00020002000400B8
:00000001FF
